:100000000C9434000C9451000C9451000C94510049
:100010000C9451000C9451000C9451000C9451001C
:100020000C9451000C9451000C9451000C9451000C
:100030000C9451000C9451000C9451000C945100FC
:100040000C9451000C9451000C9451000C945100EC
:100050000C9451000C9451000C9451000C945100DC
:100060000C9451000C94510011241FBECFEFD4E02A
:10007000DEBFCDBF11E0A0E0B1E0EAEEF7E002C0E4
:1000800005900D92A631B107D9F711E0A6E1B1E0D4
:1000900001C01D92A033B107E1F70E94F7000C9454
:1000A000F3030C940000EF92FF920F931F930DB493
:1000B00007FEFDCF8EB590E0A0E0B0E08093160182
:1000C00090931701A0931801B09319010DB407FE86
:1000D000FDCF8EB5E82EFF2400E010E0E09226016F
:1000E000F092270100932801109329010DB407FE17
:1000F000FDCF8EB5282F30E040E050E02093220164
:100100003093230140932401509325010DB407FE41
:10011000FDCF8EB590E0A0E0B0E080931A019093FF
:100120001B01A0931C01B0931D01542F432F322FAC
:1001300022278701FF24EE242E293F29402B512B13
:10014000282B392B4A2B5B2B20931E0130931F0148
:100150004093200150932101B901CA011F910F91D1
:10016000FF90EF9008950DB407FEFDCF6EB570E0DF
:1001700080E090E008951A9BFECF089580E184B955
:1001800081E387B982EF8AB91092C50081E8809334
:10019000C40088E18093C10087E091E090932D0135
:1001A00080932C0180E48CBD08951F93182F8A3012
:1001B00019F48DE00E94D5008091C00085FFFCCF2E
:1001C0001093C60080E090E01F9108958091C000D8
:1001D00087FFFCCF8091C600089506C020E0000094
:1001E0002F5F2233E1F701970097C1F70895CF936E
:1001F000DF9380E184B981E387B982EF8AB91092F5
:10020000C50081E88093C40088E18093C10087E045
:1002100091E090932D0180932C0180E48CBDC0E08F
:10022000D1E01A9BFECF0E9453000E9453009F937F
:100230008F937F936F93DF93CF930E9428018DB7A5
:100240009EB706960FB6F8949EBF0FBE8DBFE9CF3E
:10025000A0E0B0E0EEE2F1E00C94CC03FE013596B4
:1002600061917191AF0180912C0190912D010E94BB
:100270003D012096E2E00C94E803ABE0B0E0E3E45B
:10028000F1E00C94BC033C012B015A01FC011782E4
:100290001682838181FD03C06FEF7FEFC8C19AE0B2
:1002A000892E1E010894211C311CF3012381F201C7
:1002B00023FD859123FF81912F01882309F4B4C187
:1002C000853239F423FD859123FF81912F018532F9
:1002D00029F4B30190E00E943203E7CF982FDD2488
:1002E000CC249924FFE1FD15D0F09B3269F09C32BB
:1002F00028F4903259F0933291F40EC09D3249F0B7
:10030000903369F441E024C052E0D52A84E0D82A31
:1003100028C098E0D92A25C0E0E1DE2A22C0D7FC17
:1003200029C0892F80538A3070F4D6FE05C0989C6E
:10033000902C1124980E15C0C89CC02C1124C80EF6
:10034000F0E2DF2A0EC09E3229F4D6FC6DC140E4F3
:10035000D42A07C09C3619F450E8D52A02C0983632
:1003600049F4F20123FD959123FF91912F019923E7
:1003700009F0B8CF892F8554833018F0805283302C
:1003800038F444E050E0A40EB51E5FE359830FC07B
:10039000933631F0933779F0933509F056C020C089
:1003A000F5018081898342E050E0A40EB51E710101
:1003B00001E010E012C0F501E080F180D6FC03C03E
:1003C0006FEF7FEF02C0692D70E042E050E0A40EB5
:1003D000B51EC7010E9427038C015FE7D52214C018
:1003E000F501E080F180D6FC03C06FEF7FEF02C023
:1003F000692D70E042E050E0A40EB51EC7010E94D6
:100400001C038C0150E8D52AD3FE07C01AC0B301E3
:1004100080E290E00E943203CA948C2D90E008178D
:100420001907A8F30EC0F701D7FC8591D7FE81917B
:100430007F01B30190E00E943203C110CA940150C1
:1004400010400115110579F7ECC0943611F099367A
:1004500071F5D7FE08C0F501E080F18002811381BB
:1004600044E050E00AC0F501808191817C010027C1
:10047000F7FC0095102F42E050E0A40EB51E5FE699
:10048000D52217FF0AC010950095F094E094E11C66
:10049000F11C011D111D80E8D82A2AE030E0A101DD
:1004A000C801B7010E945E03F82EF21840C09537CC
:1004B00029F41D2D1F7E2AE030E01DC01D2D197F5F
:1004C0009F3661F0903720F4983509F0ADC00FC029
:1004D000903739F0983709F0A7C004C028E030E021
:1004E0000AC0106114FD146020E130E004C014FD66
:1004F000166020E132E017FF08C0F50160817181CC
:100500008281938144E050E008C0F50180819181AF
:10051000BC0180E090E042E050E0A40EB51EA101D5
:100520000E945E03F82EF2188FE7D82ED122D6FE55
:100530000BC05EEFD522F91438F4D4FE07C0D2FC0C
:1005400005C08FEED82202C01F2D01C0192DD4FE88
:100550000DC0FE01EF0DF11D8081803319F499EE7D
:10056000D92208C01F5FD2FE05C003C08D2D86783A
:1005700009F01F5F0D2DD3FC14C0D0FE0FC01C1559
:1005800010F09F2C0BC09F2C9C0C911A1C2D06C0A8
:10059000B30180E290E00E9432031F5F1C15C0F39C
:1005A00004C01C1510F4C11A01C0CC2404FF10C0F3
:1005B000B30180E390E00E94320302FF1EC001FD00
:1005C00003C088E790E002C088E590E0B3010CC06A
:1005D000802F867891F001FF02C08BE201C080E29B
:1005E000D7FC8DE2B30190E00E94320306C0B30154
:1005F00080E390E00E9432039A94F914C0F3FA94D5
:10060000F101EF0DF11DB301808190E00E943203F2
:10061000FF20A9F706C0B30180E290E00E943203F8
:10062000CA94CC20C1F741CEF30166817781CB011A
:100630002B96E2E10C94D803FC01059061507040C8
:100640000110D8F7809590958E0F9F1F0895FC019B
:100650006150704001900110D8F7809590958E0FF1
:100660009F1F08950F931F93CF93DF938C01EB018E
:100670008B8181FF1BC082FF0DC02E813F818C8149
:100680009D812817390764F4E881F9810193F98382
:10069000E88306C0E885F985802F0995892B31F418
:1006A0008E819F8101969F838E8302C00FEF1FEF83
:1006B000C801DF91CF911F910F910895FA01AA27E8
:1006C000283051F1203181F1E8946F936E7F6E5F95
:1006D0007F4F8F4F9F4FAF4FB1E03ED0B4E03CD043
:1006E000670F781F891F9A1FA11D680F791F8A1F26
:1006F000911DA11D6A0F711D811D911DA11D20D08D
:1007000009F468943F912AE0269F11243019305D46
:100710003193DEF6CF010895462F4770405D419337
:10072000B3E00FD0C9F7F6CF462F4F70405D4A3384
:1007300018F0495D31FD4052419302D0A9F7EACF4C
:10074000B4E0A6959795879577956795BA95C9F77B
:1007500000976105710508959B01AC010A2E06946E
:100760005795479537952795BA95C9F7620F731F27
:10077000841F951FA01D08952F923F924F925F9264
:100780006F927F928F929F92AF92BF92CF92DF92A1
:10079000EF92FF920F931F93CF93DF93CDB7DEB706
:1007A000CA1BDB0B0FB6F894DEBF0FBECDBF09949A
:1007B0002A88398848885F846E847D848C849B84F1
:1007C000AA84B984C884DF80EE80FD800C811B81FF
:1007D000AA81B981CE0FD11D0FB6F894DEBF0FBE2E
:0A07E000CDBFED010895F894FFCF9E
:1007EA00256C75200D0A000000000200000000D5EB
:0607FA00000000000000F9
:00000001FF
